:100000000C9463000C948B000C948B000C948B006C
:100010000C948B000C948B000C948B000C94AF030D
:100020000C948B000C948B000C948B000C948B0024
:100030000C948B000C948B000C948B000C948B0014
:100040000C944B040C948B000C9417070C945A07D7
:100050000C948B000C948B000C948B000C948B00F4
:100060000C948B000C948B00000000070002010030
:100070000003040600000000000000000102040864
:100080001020408001020408102001020408102002
:10009000040404040404040402020202020203032E
:1000A00003030303000000002300260029000000D2
:1000B0000000250028002B0000000000240027007D
:1000C0002A009E01160811241FBECFEFD8E0DEBF24
:1000D000CDBF11E0A0E0B1E0E4ECFCE102C005908E
:1000E0000D92A235B107D9F722E0A2E5B1E001C037
:1000F0001D92A934B207E1F710E0C6ECD0E004C0CD
:100100002297FE010E94D00DC23CD107C9F70E9480
:1001100076060C94600E0C94000040E855E260E016
:1001200070E08BE991E00C949507CF92DF92EF920B
:10013000FF920F931F93CF93DF93CDB7DEB72E9728
:100140000FB6F894DEBF0FBECDBF0E94950460933A
:10015000540170935501809356019093570180E8A4
:1001600091E00E94F40160935801709359018093CB
:100170005A0190935B01809152019091530181301B
:10018000910509F443C08230910509F466C0892BBA
:1001900009F080C060915401709155018091560121
:1001A0009091570128EC30E040E050E00E94A10D12
:1001B000653671058105910528F04CE95FEF64E62D
:1001C00070E004C04EEC5FEF62E370E08CE591E01C
:1001D0000E9465028091580190915901A0915A01A5
:1001E000B0915B014091020150910301662757FDD8
:1001F0006095762F481759076A077B0708F452C0A5
:10020000892B8A2B8B2B09F44DC01DC044E650E08E
:1002100064E670E08CE591E00E9465028091000147
:1002200090910101AA2797FDA095BA2F40915801FE
:100230005091590160915A0170915B0184179507A3
:10024000A607B70778F1809152019091530101966A
:10025000909353018093520125C060915401709195
:100260005501809156019091570128EC30E040E013
:1002700050E00E94A10D653671058105910528F0B9
:1002800041E05FEF6FEF70E009C04EEC5FEF62E3BB
:1002900070E004C040E050E060E070E08CE591E088
:1002A0000E946502C0905801D0905901E0905A0117
:1002B000F0905B01009152011091530160E271E0F6
:1002C000CE0108960E94DA08BE01685F7F4FCE011A
:1002D00001960E940809B801CE0101960E94BD094D
:1002E0006BE271E00E94A309B701A6010E94CB094D
:1002F00060E471E00E94A309BC018BE991E00E94D7
:10030000620ACE0101960E946C08CE0108960E94F6
:100310006C0864E670E080E090E00E94C4042E96D1
:100320000FB6F894DEBF0FBECDBFDF91CF911F9106
:100330000F91FF90EF90DF90CF900895EF92FF9292
:100340000F931F934091160150911701609118016E
:100350007091190180E891E00E94DF01E0900C01AA
:10036000F0900D0100910E0110910F0120911001EC
:1003700030911101409112015091130160911401CB
:100380007091150184E691E00E949D0200910401A4
:10039000109105012091060130910701409108015B
:1003A0005091090160910A0170910B018CE591E077
:1003B0000E9444021F910F91FF90EF900895CF93F8
:1003C000DF93EC01862F688379835B834A8361E046
:1003D0000E94590560E08A810E94590560E0888189
:1003E000DF91CF910C9492058F929F92AF92BF9222
:1003F000CF92DF92EF92FF92CF93DF93EC0161E017
:1004000088810E9492058AE090E00E94EA0460E000
:1004100088810E94920520E432E44FE050E061E0E0
:100420008A810E94F1056B017C010E94B00C26E9D3
:1004300033E44BE05DE30E943E0D20E030E040E01D
:100440005FE30E943E0D0E94840C4B015C01CD28AD
:10045000CE28CF2861F461E08A810E94590560E0CE
:100460008A810E94920560E08A810E945905C50137
:10047000B401DF91CF91FF90EF90DF90CF90BF90CC
:10048000AF909F908F9008950F931F93CF93DF931A
:10049000EC01862F688379835B834A833D832C83B9
:1004A0001F830E8361E00E94590561E08A810E94EA
:1004B000590561E08C810E94590561E08E81DF91D0
:1004C000CF911F910F910C945905EF92FF920F93CA
:1004D0001F93CF93DF93EC017B018A0177FD06C068
:1004E00088810E94EC0360E070E009C060E070E089
:1004F00088810E94EC03662777276E197F098A811D
:100500000E94EC0317FD07C0B8018C810E94EC0328
:1005100060E070E009C060E070E08C810E94EC0354
:1005200066277727601B710B8E81DF91CF911F911A
:100530000F91FF90EF900C94EC036F927F928F924B
:100540009F92AF92BF92CF92DF92EF92FF920F9362
:100550001F93CF93DF9300D0CDB7DEB73C016A0184
:10056000590182ED90E069837A830E9483064C01F1
:1005700069817A810E940A03F3019382828282ED6B
:1005800090E00E9483064C01B6010E940A03F30129
:100590009582848282ED90E00E9483066C01B50111
:1005A0000E940A03F301D782C68282ED90E00E9486
:1005B00083066C01B8010E940A03F301D186C0864C
:1005C00082ED90E00E9483068C01B7010E940A032D
:1005D000F3011387028700E010E0F301E00FF11F41
:1005E000828193810E9423030E5F1F4F0A30110501
:1005F000A1F70F900F90DF91CF911F910F91FF9076
:10060000EF90DF90CF90BF90AF909F908F907F90B2
:100610006F90089522EDFC0111922A95E9F7FC01F3
:1006200061832091900130919101F901EE0FFF1F3C
:10063000EC57FE4F918380832F5F3F4F30939101A2
:10064000209390010895FC01F89482E08093B0001B
:100650008093B10094E69093B3001092B20080931F
:10066000700078948083148260E081810C94590535
:10067000CF93DF93EC0189810E94C805582F2D810B
:100680003E812F5F3F4F3E832D839C81953610F036
:1006900086E088834881443091F128F4423071F03B
:1006A0004330E9F045C04530F1F1463009F040C033
:1006B00081E0FE01EF52FF4F808338C0511138C0F6
:1006C0002436310518F41E821D8232C0FE01EF521D
:1006D000FF4F108281E08C8338872F831CC05130FC
:1006E00039F581E0890F8C83FE01E90FF11DE90FD7
:1006F000F11D308727831E821D8284E018C05111AE
:100700000EC081E0890F8C83FE01E90FF11DE90F16
:10071000F11D308727831E821D8283E008C02536A5
:10072000310530F003C0552371F202C085E08883A3
:100730008B81882389F08A81511106C0882311F0AA
:1007400061E005C02D9A08C0882329F060E0DF91A0
:10075000CF910C9492052D98DF91CF9108951F921F
:100760000F920FB60F9211240F931F932F933F9365
:100770004F935F936F937F938F939F93AF93BF93A9
:10078000CF93DF93EF93FF9304E811E0C0E0D0E054
:100790008091900190919101C817D90744F4F80114
:1007A000819191918F010E9438032196F1CFFF91A1
:1007B000EF91DF91CF91BF91AF919F918F917F91F9
:1007C0006F915F914F913F912F911F910F910F90DA
:1007D0000FBE0F901F9018951F93CF93DF93182F84
:1007E000EB0161E00E945905209711F460E004C01C
:1007F000CF3FD10539F461E0812FDF91CF911F9177
:100800000C949205E12FF0E0E859FF4FE491E330BA
:10081000F9F048F4E130B9F0E230A1F584B5806236
:1008200084BDC8BD34C0E630E9F0E73019F1E430EA
:1008300049F580918000806280938000D0938B0086
:10084000C0938A0024C084B5806884BDC7BD1FC022
:1008500080918000806880938000D0938900C0934D
:10086000880015C08091B00080688093B000C0936C
:10087000B3000DC08091B00080628093B000C0933F
:10088000B40005C0C038D1050CF0B5CFAFCFDF91B3
:10089000CF911F9108951F920F920FB60F921124BE
:1008A0002F933F938F939F93AF93BF938091930127
:1008B00090919401A0919501B0919601309192018F
:1008C00023E0230F2D3720F40196A11DB11D05C093
:1008D00026E8230F0296A11DB11D2093920180935B
:1008E000930190939401A0939501B0939601809108
:1008F000970190919801A0919901B0919A01019668
:10090000A11DB11D8093970190939801A093990127
:10091000B0939A01BF91AF919F918F913F912F9189
:100920000F900FBE0F901F9018952FB7F8946091FD
:1009300093017091940180919501909196012FBF40
:1009400008953FB7F8948091970190919801A091F4
:100950009901B0919A0126B5A89B05C02F3F19F0C7
:100960000196A11DB11D3FBF6627782F892F9A2FB1
:10097000620F711D811D911D42E0660F771F881F58
:10098000991F4A95D1F70895CF92DF92EF92FF9287
:10099000CF93DF936B017C010E94A104EB01C11492
:1009A000D104E104F10479F00E94A1046C1B7D0BD9
:1009B000683E7340A0F381E0C81AD108E108F1084D
:1009C000C851DC4FECCFDF91CF91FF90EF90DF90DB
:1009D000CF9008950197009739F0880F991F880FDD
:1009E000991F02970197F1F70895789484B5826072
:1009F00084BD84B5816084BD85B5826085BD85B5C3
:100A0000816085BDEEE6F0E0808181608083E1E871
:100A1000F0E01082808182608083808181608083A9
:100A2000E0E8F0E0808181608083E1EBF0E08081AC
:100A300084608083E0EBF0E0808181608083EAE77E
:100A4000F0E0808184608083808182608083808107
:100A5000816080838081806880831092C1000895C6
:100A6000833081F028F4813099F08230A1F008952C
:100A70008630A9F08730B9F08430D1F480918000BD
:100A80008F7D03C0809180008F77809380000895D0
:100A900084B58F7702C084B58F7D84BD0895809121
:100AA000B0008F7703C08091B0008F7D8093B0003D
:100AB0000895CF93DF9390E0FC01E458FF4F249119
:100AC000FC01E057FF4F8491882349F190E0880FA3
:100AD000991FFC01E854FF4FA591B49182559F4F97
:100AE000FC01C591D4919FB7611108C0F8948C9115
:100AF000209582238C93888182230AC0623051F42E
:100B0000F8948C91322F309583238C938881822B9B
:100B1000888304C0F8948C91822B8C939FBFDF91C3
:100B2000CF9108950F931F93CF93DF931F92CDB76B
:100B3000DEB7282F30E0F901E859FF4F8491F90121
:100B4000E458FF4F1491F901E057FF4F049100233F
:100B5000C9F0882321F069830E9430056981E02F64
:100B6000F0E0EE0FFF1FE255FF4FA591B4919FB744
:100B7000F8948C91611103C01095812301C0812BE1
:100B80008C939FBF0F90DF91CF911F910F9108958C
:100B9000CF93DF93282F30E0F901E859FF4F84917C
:100BA000F901E458FF4FD491F901E057FF4FC49188
:100BB000CC2391F081110E943005EC2FF0E0EE0F74
:100BC000FF1FEC55FF4FA591B4912C912D2381E08F
:100BD00090E021F480E002C080E090E0DF91CF91CE
:100BE0000895CF92DF92EF92FF920F931F93CF93CE
:100BF000DF9390E0FC01E458FF4FD491FC01E057F3
:100C0000FF4F7491611102C0C0E001C0CD2FDA0125
:100C1000C901BF70672F70E0660F771F6C557F4F5B
:100C200000E010E09801FB01E590F490F7014081AD
:100C30004D234C131EC0680179014FEFC41AD40A2A
:100C4000E40AF40A081719072A073B0709F442C007
:100C500097018601E8CF68017901FFEFCF1ADF0A1B
:100C6000EF0AFF0A081719072A073B0799F19701AE
:100C70008601FB01E590F490F70140814D234C1370
:100C8000EACF801B910BA20BB30B20E030E0A9014F
:100C9000FB01E590F490F701F080FD22FC120AC000
:100CA000281739074A075B07A9F02F5F3F4F4F4FBF
:100CB0005F4FEECFA5E1B0E00E94C30D605F7F4FB4
:100CC0008F4F9F4F24E096958795779567952A9546
:100CD000D1F703C060E070E0CB01DF91CF911F91AD
:100CE0000F91FF90EF90DF90CF9008950E94F50450
:100CF0000E948D00C1E5D7E00E9495002097E1F3A6
:100D00000E945107F9CF0C945D0BFC0124853585B9
:100D1000F901E05CFF4F8081918132962081318121
:100D2000821B930B8F7399270895FC018485958509
:100D3000FC01E05CFF4F408151813296208131817E
:100D40004217530741F00190F081E02DE80FF91FA1
:100D5000808190E008958FEF9FEF0895FC018485D6
:100D60009585FC01E05CFF4F4081518132962081E6
:100D700031814217530779F0A081B181A80FB91FC3
:100D80008C91208131812F5F3F4F2F733327318327
:100D9000208390E008958FEF9FEF0895FC0181A1DB
:100DA000882329F0A489B5898C9186FFFBCF11A2F5
:100DB0000895CF93DF93FC0126853785D901A05C88
:100DC000BF4F8D919C91119701968F739927E901DF
:100DD000CE5BDF4F4881598184179507D9F30D9079
:100DE000BC91A02DA20FB31F6C93A685B785A05C04
:100DF000BF4F11969C938E93A689B7892C9181E061
:100E000090E0078C02C0880F991F0A94E2F7282B04
:100E10002C9381E081A30488F589E02D8081806492
:100E2000808381E090E0DF91CF91089508951F9233
:100E30000F920FB60F9211242F933F934F938F93DE
:100E40009F93EF93FF938091C00082FD1CC040915F
:100E5000C600809141029091420201968F739927BA
:100E600020914302309144028217930771F0E09180
:100E70004102F0914202EF5FFD4F408390934202A6
:100E80008093410202C08091C600FF91EF919F9133
:100E90008F914F913F912F910F900FBE0F901F9008
:100EA00018958BE991E00E948506892B11F00C942E
:100EB000160708951F920F920FB60F9211242F93C9
:100EC0003F938F939F93EF93FF932091FD01309178
:100ED000FE018091FF01909100022817390731F43B
:100EE0008091C1008F7D8093C10014C0E091FF010B
:100EF000F0910002E354FE4F20818091FF01909118
:100F0000000201968F739927909300028093FF014E
:100F10002093C600FF91EF919F918F913F912F9168
:100F20000F900FBE0F901F901895CF92DF92EF9207
:100F3000FF92CF93DF93EC016A017B01411581EEB3
:100F4000580761057105F9F0EC89FD8981E090E0B1
:100F500008A002C0880F991F0A94E2F7808360E01E
:100F600079E08DE390E0A70196010E94A10D215048
:100F7000310941095109569547953795279521150E
:100F800080E1380798F0EC89FD89108260E874E808
:100F90008EE190E0A70196010E94A10D2150310938
:100FA000410951095695479537952795E889F9895B
:100FB0003083EA89FB89208319A2EE89FF89408169
:100FC00081E090E09C010C8C02C0220F331F0A9438
:100FD000E2F7422B4083EE89FF8940819C010D8C12
:100FE00002C0220F331F0A94E2F7422B4083EE899E
:100FF000FF8940819C010E8C02C0220F331F0A948E
:10100000E2F7422B4083EE89FF8920810F8C02C0DA
:10101000880F991F0A94E2F7809582238083DF91DD
:10102000CF91FF90EF90DF90CF90089510929E01A6
:1010300010929D0188EE93E0A0E0B0E080939F01C4
:101040009093A001A093A101B093A20186E491E046
:1010500090939C0180939B0181E092E09093A80182
:101060008093A7018DEB91E09093AA018093A90151
:1010700085EC90E09093AC018093AB0184EC90E020
:101080009093AE018093AD0180EC90E09093B0011D
:101090008093AF0181EC90E09093B2018093B10115
:1010A00082EC90E09093B4018093B30186EC90E0E1
:1010B0009093B6018093B50184E08093B70183E0FB
:1010C0008093B80187E08093B90185E08093BA01ED
:1010D00081E08093BB010895FC01808191810C9493
:1010E000F50BCF93DF93EC0188819981009711F084
:1010F0000E94F50B198218821D821C821B821A82A3
:10110000DF91CF9108950F931F93CF93DF93EC015D
:101110008B016F5F7F4F888199810E94740A0097CD
:1011200031F0998388831B830A8381E001C080E0CA
:10113000DF91CF911F910F910895CF93DF93EC0131
:1011400088819981892B29F08A819B81861797074D
:1011500060F4CE010E948308882341F08C819D8138
:10116000892B19F4E881F981108281E0DF91CF9118
:101170000895EF92FF920F931F93CF93DF93EC01AB
:101180007B018A01BA010E949D08811104C0CE0131
:101190000E94710807C01D830C83B7018881998163
:1011A0000E94EC0DCE01DF91CF911F910F91FF9026
:1011B000EF900895FC011182108213821282158231
:1011C000148216826115710559F0FB01019000200F
:1011D000E9F7AF0141505109461B570B0C94B90870
:1011E0000895CF93DF93EC01FB018617970761F019
:1011F000608171816115710529F0448155810E94DA
:10120000B90802C00E947108CE01DF91CF91089504
:10121000FC011182108213821282158214821682BE
:101220000C94F108EF92FF920F931F93CF93DF93EB
:10123000EC017B010C811D816115710511F480E0C9
:1012400016C04115510591F0040F151FB8010E94F9
:101250009D088823A1F3288139818C819D81B70164
:10126000820F931F0E94EC0D1D830C8381E0DF91A0
:10127000CF911F910F91FF90EF900895EF92FF9201
:101280000F931F93CF93DF93CDB7DEB727970FB69A
:10129000F894DEBF0FBECDBF7C01CB014AE050E029
:1012A0008E010F5F1F4FB8010E94F30DF8010190EE
:1012B0000020E9F7AF0141505109401B510BB80123
:1012C000C7010E94120927960FB6F894DEBF0FBE21
:1012D000CDBFDF91CF911F910F91FF90EF900895B7
:1012E000EF92FF920F931F93CF93DF93CDB7DEB7AB
:1012F0002B970FB6F894DEBF0FBECDBF7C01CB019C
:10130000BA012AE030E08E010F5F1F4FA8010E9452
:10131000090EF80101900020E9F7AF014150510991
:10132000401B510BB801C7010E9412092B960FB642
:10133000F894DEBF0FBECDBFDF91CF911F910F910B
:10134000FF90EF900895CF93DF93EC016115710545
:1013500069F0FB0101900020E9F7AF01415051090C
:10136000461B570B0E941209811103C0CE010E9437
:101370007108CE01DF91CF910895CF93DF93EC01F7
:101380000E943E09811103C0CE010E947108CE0166
:10139000DF91CF910895CF93DF93EC010E94700904
:1013A000811103C0CE010E947108CE01DF91CF915F
:1013B0000895FC01248135816217730748F4808108
:1013C0009181009729F0FC01E60FF71F80810895B5
:1013D00080E00895CF92DF92EF92FF920F931F93D8
:1013E000CF93DF936C017A01EB01E60EF71E00E06C
:1013F00010E0CE15DF0561F06991D601ED91FC9109
:101400000190F081E02DC6010995080F191FF1CF59
:10141000C801DF91CF911F910F91FF90EF90DF9066
:10142000CF900895AF92BF92CF92DF92EF92FF924A
:101430000F931F93CF93DF937C016B01C0E0D0E04B
:1014400000E010E0D60114968D919C911597C81775
:10145000D90788F4D701ED91FC91A080B180BE013D
:10146000C6010E94D909682FC701F5010995080F27
:10147000191F2196E7CFC801DF91CF911F910F91DE
:10148000FF90EF90DF90CF90BF90AF900895DC0178
:10149000ED91FC910190F081E02D09940F931F9341
:1014A000CF93DF93EC016DE00E94470A8C016AE064
:1014B000CE010E94470A800F911FDF91CF911F91AB
:1014C0000F9108950F931F93CF93DF93EC010E9428
:1014D000120A8C01CE010E944E0A800F911FDF91EB
:1014E000CF911F910F9108956F927F928F929F924B
:1014F000AF92BF92CF92DF92EF92FF920F931F9322
:10150000CF93DF93EC01CB01209781F4DF91CF9152
:101510001F910F91FF90EF90DF90CF90BF90AF9011
:101520009F908F907F906F900C945D0BFE01E60F63
:10153000F71F9E0122503109E217F30708F4ACC0EF
:10154000D9010D911C91119706171707B8F00530B6
:10155000110508F49FC0A8014450510946175707C8
:1015600008F498C002501109061B170B0193119340
:101570006D937C93CF010E94F50B8CC05B01A01A88
:10158000B10A4E01800E911EA0914702B09148020F
:10159000612C712C60E070E0109709F449C0A81527
:1015A000B905C9F5ED90FC901197670142E0C40EB2
:1015B000D11CCA14DB0478F147018A189B08640126
:1015C00042E0C40ED11C1296BC9012971396AC91B7
:1015D000B5E0CB16D10440F0B282A3839182808221
:1015E000D9018D939C9309C00E5F1F4F0E0D1F1DD7
:1015F000F90111830083EB2DFA2F6115710531F08C
:10160000DB011396FC93EE93129744C0F0934802CB
:10161000E09347023FC06D917C9111976616770663
:1016200008F43B01BD0112960D90BC91A02DB4CFE2
:10163000609145027091460268157905E9F46816D3
:101640007906D0F440911A0150911B0141155105C2
:1016500041F44DB75EB760911E0170911F01461BAA
:10166000570BE417F507C0F4F0934602E0934502E8
:10167000F901918380830EC00E945D0B7C0100976D
:1016800059F0A801BE010E94E30DCE010E94F50BA6
:10169000C70104C0CE0102C080E090E0DF91CF918D
:1016A0001F910F91FF90EF90DF90CF90BF90AF9080
:1016B0009F908F907F906F900895CF93DF938230AB
:1016C000910510F482E090E0E0914702F091480229
:1016D00020E030E0A0E0B0E0309739F14081518166
:1016E00048175907B8F04817590771F48281938158
:1016F000109729F013969C938E9312972CC0909379
:1017000048028093470227C02115310531F0421766
:10171000530718F0A901DB0101C0EF019A01BD01D7
:10172000DF010280F381E02DD7CF21153105F9F0DB
:10173000281B390B2430310580F48A819B81611587
:10174000710521F0FB019383828304C090934802CA
:1017500080934702FE01329644C0FE01E20FF31F60
:101760008193919322503109398328833AC0209183
:10177000450230914602232B41F420911C01309107
:101780001D01309346022093450220911A013091A9
:101790001B012115310541F42DB73EB740911E01C3
:1017A00050911F01241B350BE0914502F091460238
:1017B000E217F307A0F42E1B3F0B2817390778F028
:1017C000AC014E5F5F4F2417350748F04E0F5F1F87
:1017D00050934602409345028193919302C0E0E00A
:1017E000F0E0CF01DF91CF910895CF93DF93009781
:1017F00009F487C0FC01329713821282C09147021C
:10180000D0914802209781F420813181280F391F1F
:1018100080914502909146028217930779F5F093E3
:101820004602E09345026DC0DE0120E030E0AE17D5
:10183000BF0750F412964D915C9113979D0141158D
:10184000510509F1DA01F3CFB383A28340815181BD
:10185000840F951F8A179B0771F48D919C911197A6
:10186000840F951F02969183808312968D919C918F
:101870001397938382832115310529F4F09348024D
:10188000E09347023EC0D9011396FC93EE93129762
:101890004D915D91A40FB51FEA17FB0779F4808184
:1018A0009181840F951F0296D90111969C938E9376
:1018B0008281938113969C938E931297E0E0F0E0DF
:1018C0008A819B81009719F0FE01EC01F9CFCE01CE
:1018D000029628813981820F931F20914502309111
:1018E00046022817390769F4309729F41092480204
:1018F0001092470202C013821282D0934602C09314
:101900004502DF91CF91089598D088F09F5790F0CD
:10191000B92F9927B751A0F0D1F0660F771F881F14
:10192000991F1AF0BA95C9F712C0B13081F09FD053
:10193000B1E008959CC0672F782F8827B85F39F0F1
:10194000B93FCCF3869577956795B395D9F73EF473
:1019500090958095709561957F4F8F4F9F4F08951B
:10196000E89409C097FB3EF4909580957095619539
:101970007F4F8F4F9F4F9923A9F0F92F96E9BB27EF
:101980009395F695879577956795B795F111F8CF6B
:10199000FAF4BB0F11F460FF1BC06F5F7F4F8F4FD6
:1019A0009F4F16C0882311F096E911C0772321F0CC
:1019B0009EE8872F762F05C0662371F096E8862F64
:1019C00070E060E02AF09A95660F771F881FDAF7BB
:1019D000880F9695879597F9089597F99F6780E8FE
:1019E00070E060E008959FEF80EC089500240A9471
:1019F0001616170618060906089500240A941216EA
:101A00001306140605060895092E0394000C11F41C
:101A1000882352F0BB0F40F4BF2B11F460FF04C0C9
:101A20006F5F7F4F8F4F9F4F089557FD9058440F22
:101A3000551F59F05F3F71F04795880F97FB991F2D
:101A400061F09F3F79F087950895121613061406EA
:101A5000551FF2CF4695F1DF08C016161706180677
:101A6000991FF1CF86957105610508940895E89452
:101A7000BB2766277727CB0197F908950BD0C4CFF2
:101A8000B5DF28F0BADF18F0952309F0A6CFABCF69
:101A90001124EECFCADFA0F3959FD1F3950F50E04C
:101AA000551F629FF001729FBB27F00DB11D639F10
:101AB000AA27F00DB11DAA1F649F6627B00DA11DB6
:101AC000661F829F2227B00DA11D621F739FB00D5C
:101AD000A11D621F839FA00D611D221F749F3327CC
:101AE000A00D611D231F849F600D211D822F762F65
:101AF0006A2F11249F5750408AF0E1F088234AF062
:101B0000EE0FFF1FBB1F661F771F881F91505040AD
:101B1000A9F79E3F510570F060CFAACF5F3FECF36D
:101B2000983EDCF3869577956795B795F795E79599
:101B30009F5FC1F7FE2B880F911D9695879597F9AA
:101B40000895A1E21A2EAA1BBB1BFD010DC0AA1FFE
:101B5000BB1FEE1FFF1FA217B307E407F50720F016
:101B6000A21BB30BE40BF50B661F771F881F991F91
:101B70001A9469F760957095809590959B01AC01DA
:101B8000BD01CF0108950E94D40DA59F900DB49F73
:101B9000900DA49F800D911D11240895EE0FFF1F3D
:101BA0000590F491E02D0994A29FB001B39FC0016C
:101BB000A39F700D811D1124911DB29F700D811D79
:101BC0001124911D0895FB01DC0102C001900D92CA
:101BD00041505040D8F70895FB01DC0101900D926F
:101BE0000020E1F708954532510520F4423010F00D
:101BF0000C94FE0DFB011082CB010895BB274A30E7
:101C000031F4992322F4BDE2909581959F4F0C9475
:101C1000370E2532310520F4223010F00C94140ECA
:101C2000FA011082CA010895BB27FA01A62F621794
:101C3000710581059105330B30FB66F0AA27660F0D
:101C4000771F881F991FAA1FA21710F0A21B639568
:101C50003850A9F7A05DAA3308F0A95DA19336F723
:101C6000B111B1931082CA010C94500EBB27FB0135
:101C70005527AA27880F991FAA1FA41710F0A41B85
:101C800083955051B9F7A05DAA3308F0A95DA193DF
:101C9000009779F7B111B1931192CB010C94500ECA
:101CA000DC01FC01672F71917723E1F7329704C0C3
:101CB0007C916D9370836291AE17BF07C8F308954E
:041CC000F894FFCFC6
:101CC40009001900050006000B000A0012001100AB
:101CD40010000F000E0009000800000049028000F7
:101CE4007B227374616765223A20002C2022736F73
:101CF4006E69635F64697374616E6365223A200080
:101D04007D0000000000D906EA098506AE069506A6
:021D1400CE06F9
:00000001FF
